:080A83007F5A7EA3DEFEDFFCBA
:010A8B002248
:1008000030A70C30A60930A50630A4031209F42045
:10081000A71B30A61820A51520A412120A2120A774
:100820000C20A60920A50620A4031209F420A71B6A
:1008300020A61830A51520A412120A1220A70C20F9
:10084000A60920A50620A4031209F420A72420A6A7
:100850002130A51E30A41B1209F4120A8320A7120E
:1008600020A60F20A50C20A4091209E5120A831264
:100870000A5D30A72130A61E20A51B20A41812094E
:10088000F4120A8320A70F20A60C20A50920A40695
:10089000120A83120A4E20A70920A60620A50330BB
:1008A000A41820A70930A60620A50320A40C20A781
:1008B0002730A62430A52130A41E1209F4120A8381
:1008C000120A8320A71220A60F20A50C20A409122B
:1008D00009E5120A83120A5D30A70920A60620A5A1
:1008E0000330A41830A70920A60630A50330A40CB5
:1008F00030A72730A62430A52120A41E1209F41207
:100900000A83120A8320A71220A60F20A50C20A478
:10091000091209E5120A83120A5D20A70F30A60CFE
:1009200030A50920A40630A703120A4E20A70F30D5
:0F093000A60C30A50920A40630A403120A4E22FB
:0B0A78001209CE1209F412080080FBE6
:0F09E500E4F508120A9C120AAB120ABA020AC9F8
:1009CE005389F0438901758AA4758CFFC28DD28C30
:0709DE00D2A9D2AFC2B92279
:03000B0002093FA8
:10093F00C0E0C0F0C083C082C0D075D000C000C07E
:10094F0001C002C003C004C005C006C007758AA459
:10095F00758CFF0509E509C39464400D75090012F4
:10096F0009E57F327E001209ACE509C39508500AEC
:10097F00D287D282D2B7D2B28008C287C282C2B720
:10098F00C2B2D007D006D005D004D003D002D00118
:0D099F00D000D0D0D082D083D0F0D0E03294
:0F09F400750814120A92120AA1120AB0020ABF61
:0F0A0300750812120A97120AA6120AB5020AC43F
:0F0A1200750812120AA1120ABF120A9C020ABA30
:0F0A2100750812120A92120AB0120AAB020AC921
:0F0A3000750812120A97120AB5120A9C020ABA26
:0F0A3F00750812120A97120AB5120AAB020AC9F9
:0F0A4E00750814120A92120AB0120AA6020AC4FC
:0F0A5D00750814120A97120AB5120AA1020ABFED
:050A9200C285D286229E
:050A9700D285C2862299
:050A9C00D285D2862284
:050AA100C283D2842293
:050AA600D283C284228E
:050AAB00D283D2842279
:050AB000D2B5C2B62220
:050AB500C2B5D2B6221B
:050ABA00D2B5D2B62206
:050ABF00D2B3C2B42215
:050AC400C2B3D2B42210
:050AC900D2B3D2B422FB
:050A8C00007FF7DFFE12
:010A91002242
:0409AC00AD07AC06E1
:1009B000E4FBFAED25E0FFEC33FEC3EB9FEA9E502B
:0D09C0000CB295120A8C0BBB00010A80E6F8
:0109CD002207
:03000000020A6C85
:0C0A6C00787FE4F6D8FD758109020A7855
:00000001FF
